:020000040000FA
:10000000E2017D0848083E086E084B08670873083F
:100010004C087F084F0800083708FF08E201DE0897
:100020001208E60876083A087C08F8081608FE0860
:100030003E080008EC08FF08E2017D0848083E0879
:100040006E084B08670873084C087F084F080008C3
:100050003708FF08E201DE081208E60876083A08C9
:100060007C08F8081608FE083E080008EC08FF089F
:10007000E2010D080E080B080708E2010F0842080C
:10008000400801088608A008000827081008000892
:100090000308E808000800086408000800080A08C7
:1000A00000080008010839007F0E0009F906800DDC
:1000B000390000083A007F0E0E09FA06010D3A00D9
:1000C00000083B007F0E1C09FB06800D3B0000086A
:1000D0003C007F0E2A09FC06010D3C0000086F0061
:1000E000700071006B00610000000000190CDD0160
:1000F0002400000226001D0238092500BE02BE06AB
:10010000BD02BE045D040E0C2E000400EE02850A42
:100110000000000001023100010CEB074000F10675
:100120004000F0010306AF02EF06AA0A11022B00FD
:100130002D024306EC00ED000C020D014307760A88
:1001400001023100010CEB074000F1064000F00114
:100150000306AF020008000C05006500000C060055
:1001600066007D007E000C0C53090C0C5A090C0C27
:1001700061090C0C6809070C02006C006D006F0926
:100180000A0C53090A0C5A090A0C61090A0C68097D
:10019000000C0500000C06000400200C0200180CE6
:1001A0002C006A0C2D006F09040C2C000304710351
:1001B00070036F03EC02D60A2F024307EE0A270CE6
:1001C00090000306EE0A070C020061002F0C0200EB
:1001D0000400C30C2C00500C2D006F090F021001FD
:1001E00011014306500BEF06590B6700120C240057
:1001F00007023D092800A70207023D092900A702BE
:1002000007023D092A00A70260000A02B1000902A4
:1002100003060F0BB00043060304F000100BB00000
:1002200008020306180BAF0043060304EF00190B86
:10023000AF0003071D0BA002050B0A02F101090222
:100240000307270BF001B00243060305280BF0015A
:1002500008020307300BEF01AF0243060305310B21
:10026000EF01A402150C87004307F80AF505120CEC
:10027000240020024307440BA40220024307440B3E
:10028000A40220024306A40200025309A4020002B1
:100290005A09A40200026109A40200026809C80AFE
:1002A0000A0C53090A0C5A090A0C6109000C680966
:1002B000C80A0A0C53090A0C5A090A0C61090B0CEA
:0402C0006809C80AF7
:0203FE00AB0A48
:080400000B000A0001000000DE
:021FFE00F60FDC
:00000001FF
