:020000040000FA
:10000000A82982073F3406345B344F3466346D349C
:100010007D3407347F346F3477347C3458345E3425
:10002000793471343D34763410340034FF34733411
:1000300050345C3467341C3478346D345B34303481
:100040000E347834383437343C3448348207303412
:10005000183414341234113482070034983496342E
:10006000803400340F344234403400340134863458
:10007000A034003400342734103400340034033406
:10008000E834003400340034643400340034003484
:100090000A3400340034003401343C088207CD2A8D
:1000A000D82AEE2AF62AFE2A062B112B132B152B03
:1000B000172B192BCD2A3C088207242B252B2C2B00
:1000C0003A2B472B4C2B4F2B4F2B4F2B4F2B4F2B80
:1000D000242B6400831681008312003464008101A4
:1000E00083163730810064003F3081008312003472
:1000F000003088008B016400810183163B30810051
:100100008312630000000800C9007F390120C91B69
:100110008038C9000034CA007F390120CA1B8038EA
:10012000CA000034CB007F390120CB1B8038CB00C4
:100130000034CC007F390120CC1B8038CC00003447
:10014000CD007F390120CD1B8038CD000034003038
:10015000C900CA00CB00CC00CD0000348B130317BC
:1001600083128D00031383120008031783128C007F
:10017000031783160C158B1355308D00AA308D0094
:100180008C148C18C1280C11031383120034AF0097
:100190008B13031783128D00031783160C14031798
:1001A00083120C080313831280002F080800C72055
:1001B000013E840AC720013E840AC720013E840A0A
:1001C000C728B001B101B201B301AC018101000047
:1001D00000004E082620AF0049304E07840000087A
:1001E00088002F088500CF0A4F1BCE0A4F134E08F8
:1001F000043C031CCE010108B3000130AC1F030115
:10020000B31B0301B2070318B10AB11B1F2933083E
:10021000AC00AE080319AD03AE036400000000009B
:1002200000002D082E04031DE9280108B300013049
:10023000AC1F0301B31B0301B2070318B10A00345A
:100240000008840AB0000008840AB1000008840A8B
:10025000B2000008840AB300A701403084006400A3
:1002600027082C20A800A70A27082C20A900A70AE5
:1002700027082C20AA00A70A27082C20AB00A70AD1
:1002800080012B08B3022A0803184B29B202031974
:100290000310B2034C29B202290803185429B102F1
:1002A00003190310B1035529B102280803185D2969
:1002B000B00203190310B0035E29B002031C6229C7
:1002C000800A41292B08B3072A08031C6C29B207AE
:1002D000B20A031903146D29B2072908031C7529F2
:1002E000B107B10A031903147629B1072808031CC2
:1002F0007E29B007B00A031903147F29B007840AC6
:1003000020302702031D2F29403084008008031D60
:100310009929840A8008031D9929840A8008031DED
:100320009629840A8008031D9629840A5118C41747
:100330009A29C11700088420840A00088B20840AA7
:1003400000089220840A00089920840A0008A02846
:100350008316031307309F008316FF308600831235
:10036000D030831685008312850100308316880003
:1003700083128801CE01CF011330C80014308420CD
:1003800014308B2014309220143099201430A02087
:10039000373069202730AD001030AE00E120D201A7
:1003A000D401383084000030D7205530840020300C
:1003B000C720A7208316D030850000308800831224
:1003C000640030308316810083120230AD009A3011
:1003D000AE0035306920E1201330AD008830AE002A
:1003E000D10AD20A3208C039031D342AB21A302A7F
:1003F000321A2C2AB219282A3219242AB218202A91
:1004000032181D2A3308363C031C1D2A3308053CCC
:10041000031C152A0B2A6E20D20AD20AD20A4E30A9
:10042000AD002030AE000030382A6E20D20A2730CE
:10043000AD001030AE000130382A6E200230382A6C
:10044000303069200330382A313069200430382AAE
:10045000323069200530382A333069200630382A96
:10046000343069200730382A353069200830382A7E
:10047000D000E120551C692A5418A72033085302E4
:10048000AF00AF1F452AAF09AF0A2F080A3C031877
:100490004E2A5410D2013308D300692A54185A2A1C
:1004A00052083C3C0318632A0D30D2005414330820
:1004B000D300652A52080E3C0318652AD20133087E
:1004C000D300D201692A541C692A78207820782028
:1004D000AF2AD0080319732A0310B30DB20DB10D62
:1004E000B00DD00B6C2A30083104320433040319E8
:1004F000B22AB01BBD2A3008B4003108B50032085A
:10050000B6003308B7003B08B3073A08031C8D2A2E
:10051000B207B20A031903148E2AB2073908031C62
:10052000962AB107B10A03190314972AB1073808AC
:10053000031C9F2AB007B00A03190314A02AB007AE
:10054000B01FAE2AB009B109B209B309B30FAE2A80
:10055000B20FAE2AB10FAE2AB00FAE2A2C21861CE4
:10056000512BDA291330842013308B201330922042
:10057000003099201330A020AF2A1330842013308C
:100580008B20133092200E3099201330A020DA29CE
:100590000730AD00D030AE00E1281830842019308B
:1005A0008B20123092201A3099201330A020C82AB4
:1005B000551CE42A153084201B308B200A309220F1
:1005C000223099200E30D62A2130842017308B20FB
:1005D000153092201B3099202230D62A0A308420F0
:1005E0000D308B200D3092201330D42A1B30842004
:1005F00019308B200B3092201330D42A1C308420E9
:100600000E308B20163092201730D42A1A308420D6
:100610000A308B200B309220203099200E30A02001
:10062000C82A04301B2B08301B2B0C301B2B10301E
:100630001B2B14301B2BAF00343084002F08D72025
:10064000343084002021C82ACF290130D506553006
:1006500084002030AE20C82A343084000030AE2020
:10066000840A0130AE20840A0230AE20840A0330AE
:10067000AE20CF29B409B509B609B709B70F462B83
:10068000B60F462BB50F462BB40F462B2C2BB401BF
:10069000B501B601B7012C2B0630BC005F2B023030
:1006A0004D2BBC011530842016308B201730922042
:1006B000103099201330A020C822861C5C2BD10A50
:1006C0004D2086185F2B0A30BD008618702BC8227B
:1006D000BD0B652BA720C8224D20861C6A2B5B28EA
:1006E0003C08053C0319782B031C7A2BBC0A5F2BB2
:1006F000BC015F2B3C080B3C0319822B031C852B90
:0E070000BC0A5F2B0630BC005F2BBC015F2BD8
:084000000100020003000400AE
:02400E00363F3B
:10420000000000000000000000000600F10058005F
:1042100000003D0005001800000040000000000004
:1042200000004300A600D3000000A3004400E0000B
:0242400000007C
:00000001FF
