:020000040000FA
:10000000A2298207DD348434E934E534B43475340C
:100010007D34C434FD34F534FC343D342934AD34FE
:10002000793478345D34BC3408340034FF34F83427
:1000300028342D34F4340D3439347534E93418341B
:10004000853439341934DC341D3421348207F734D3
:10005000FB34FE34FD34FF34820700349834963488
:10006000803400340F344234403400340134863458
:10007000A034003400342734103400340034033406
:10008000E834003400340034643400340034003484
:100090000A3400340034003401343C088207B22AA8
:1000A000BD2AD32ADB2AE32AEB2AF62AF82AFA2ADF
:1000B000FC2AFE2AB22A3C088207092B0A2B112BA4
:1000C0001F2B2C2B312B342B342B342B342B342B58
:1000D000092B6400831681008312003464008101BF
:1000E00083162730810064002F3081008312003492
:1000F000003086008B016400810183162B30810063
:100100008312630000000800C9007F390120C91B69
:100110000238C9000034CA007F390120CA1B0238E6
:10012000CA000034CB007F390120CB1B0238CB0042
:100130000034CC007F390120CC1B0238CC000034C5
:10014000CD007F390120CD1B0238CD0000340030B6
:10015000C900CA00CB00CC00CD0000348B1383163D
:100160009B008312000883169A001C158B135530D0
:100170009D00AA309D009C149C18BC281C11831261
:100180000034AF008B1383169B001C141A088312D3
:1001900080002F080800C120013E840AC120013ED2
:1001A000840AC120013E840AC128B001B101B20114
:1001B000B301AC018101000000004E082620AF0011
:1001C00049304E078400000886002F088500CF0ABA
:1001D0004F1BCE0A4F134E08043C031CCE010108EE
:1001E000B3000130AC1F0301B31B0301B2070318B6
:1001F000B10AB11B19293308AC00AE080319AD03CD
:10020000AE0364000C30FF3E031D03290000000014
:100210000000000000002D082E04031DDD28010849
:10022000B3000130AC1F0301B31B0301B207031875
:10023000B10A00340008840AB0000008840AB10042
:100240000008840AB2000008840AB300A701403005
:100250008400640027082C20A800A70A27082C2067
:10026000A900A70A27082C20AA00A70A27082C20E3
:10027000AB00A70A80012B08B3022A0803184529FE
:10028000B20203190310B2034629B2022908031867
:100290004E29B10203190310B1034F29B1022808F6
:1002A00003185729B00203190310B0035829B002EC
:1002B000031C5C29800A3B292B08B3072A08031C6E
:1002C0006629B207B20A031903146729B20729087D
:1002D000031C6F29B107B10A031903147029B10770
:1002E0002808031C7829B007B00A031903147929D8
:1002F000B007840A20302702031D292940308400DA
:100300008008031D9329840A8008031D9329840A09
:100310008008031D9029840A8008031D9029840AFF
:100320005118C4179429C11700088420840A0008B2
:100330008B20840A00089220840A00089920840AED
:100340000008A02800308316850083128501003044
:100350008316860083128601CE01CF011330C800B8
:100360001430842014308B201430922014309920C3
:100370001430A020273069206130AD00A830AE00D5
:10038000D520D201D401383084000030CB20553044
:1003900084002030C120A720831600308500003063
:1003A0008600831264002030831681008312063099
:1003B000AD008230AE0025306920D5203030AD0050
:1003C000D430AE00D10AD20A3208C039031D192A2E
:1003D000B21A152A321A112AB2190D2A32190A2A0A
:1003E000B2180A2A32180A2A3308343C031C0A2A93
:1003F0006E20D20AD20AD20AC330AD005030AE000D
:1004000000301D2A6E20D20A6130AD00A830AE0047
:1004100001301D2A6E2002301D2A20306920033051
:100420001D2A2130692004301D2A22306920053020
:100430001D2A2330692006301D2AD000D520551CE6
:100440004E2A5418A72033085302AF00AF1F2A2AA0
:10045000AF09AF0A2F080A3C0318332A5410D201FF
:100460003308D3004E2A54183F2A52083C3C031844
:10047000482A0D30D20054143308D3004A2A5208B7
:100480000E3C03184A2AD2013308D300D2014E2A67
:10049000541C4E2A782078207820942AD0080319FA
:1004A000582A0310B30DB20DB10DB00DD00B512A67
:1004B00030083104320433040319972AB01BA22AEE
:1004C0003008B4003108B5003208B6003308B70070
:1004D0003B08B3073A08031C722AB207B20A031991
:1004E0000314732AB2073908031C7B2AB107B10A27
:1004F000031903147C2AB1073808031C842AB007A7
:10050000B00A03190314852AB007B01F932AB00953
:10051000B109B209B309B30F932AB20F932AB10FED
:10052000932AB00F932A2621851E362BCC2913300F
:10053000842013308B201330922013309920003008
:10054000A020942A0E30842013308B201330922068
:10055000133099201330A020CC291330AD008830FF
:10056000AE00D5281830842019308B20123092200C
:100570001A3099201330A020AD2A551CC92A1530F5
:1005800084201B308B200A309220223099200E309C
:10059000BB2A2130842017308B20153092201B304D
:1005A00099202230BB2A0A3084200D308B200D3058
:1005B00092201330B92A1B30842019308B200B3045
:1005C00092201330B92A1C3084200E308B20163034
:1005D00092201730B92A1A3084200A308B200B3031
:1005E0009220203099200E30A020AD2A0430002B1C
:1005F0000830002B0C30002B1030002B1430002B57
:10060000AF00343084002F08CB20343084001A210E
:10061000AD2AC1290130D506553084002030AE20E6
:10062000AD2A343084000030AE20840A0130AE2080
:10063000840A0230AE20840A0330AE20C129B409F6
:10064000B509B609B709B70F2B2BB60F2B2BB50F72
:100650002B2BB40F2B2B112BB401B501B601B70115
:10066000112B0630BC00442B0230322BBC0115305C
:10067000842016308B2017309220103099201330B0
:10068000A020AD22851E412BD10A4D20851A442B76
:100690000A30BD00851A552BAD22BD0B4A2BA72071
:1006A000AD224D20851E4F2B5B283C08053C0319CD
:1006B0005D2B031C5F2BBC0A442BBC01442B3C0864
:1006C0000A3C0319672B031C6A2BBC0A442B063017
:0806D000BC00442BBC01442BCB
:084000000100020003000400AE
:02400E00063F6B
:10420000000000000000000000000600F10058005F
:1042100000003D0005001800000040000000000004
:1042200000004300A600D3000000A3004400E0000B
:0242400000007C
:00000001FF
