:020000040000FA
:10000000A2298207DD348434E934E534B43475340C
:100010007D34C434FD34F534FC343D342934AD34FE
:10002000793478345D34BC3408340034FF34F83427
:1000300028342D34F4340D3439347534E93418341B
:10004000853439341934DC341D3421348207F734D3
:10005000FB34FE34FD34FF34820700349834963488
:10006000803400340F344234403400340134863458
:10007000A034003400342734103400340034033406
:10008000E834003400340034643400340034003484
:100090000A3400340034003401343C088207B72AA3
:1000A000C22AD82AE02AE82AF02AFB2AFD2AFF2AB7
:1000B000012B032BB72A3C0882070E2B0F2B162B84
:1000C000242B312B362B392B392B392B392B392B30
:1000D0000E2B6400831681008312003464008101BA
:1000E00083162730810064002F3081008312003492
:1000F000003086008B016400810183162B30810063
:100100008312630000000800C9007F390120C91B69
:100110000238C9000034CA007F390120CA1B0238E6
:10012000CA000034CB007F390120CB1B0238CB0042
:100130000034CC007F390120CC1B0238CC000034C5
:10014000CD007F390120CD1B0238CD0000340030B6
:10015000C900CA00CB00CC00CD0000348B1383163D
:100160009B008312000883169A001C158B135530D0
:100170009D00AA309D009C149C18BC281C11831261
:100180000034AF008B1383169B001C141A088312D3
:1001900080002F080800C120013E840AC120013ED2
:1001A000840AC120013E840AC128B001B101B20114
:1001B000B301AC018101000000004E082620AF0011
:1001C00049304E078400000886002F088500CF0ABA
:1001D0004F1BCE0A4F134E08043C031CCE010108EE
:1001E000B3000130AC1F0301B31B0301B2070318B6
:1001F000B10AB11B19293308AC00AE080319AD03CD
:10020000AE0364000C30FF3E031D03290000000014
:100210000000000000002D082E04031DDD28010849
:10022000B3000130AC1F0301B31B0301B207031875
:10023000B10A00340008840AB0000008840AB10042
:100240000008840AB2000008840AB300A701403005
:100250008400640027082C20A800A70A27082C2067
:10026000A900A70A27082C20AA00A70A27082C20E3
:10027000AB00A70A80012B08B3022A0803184529FE
:10028000B20203190310B2034629B2022908031867
:100290004E29B10203190310B1034F29B1022808F6
:1002A00003185729B00203190310B0035829B002EC
:1002B000031C5C29800A3B292B08B3072A08031C6E
:1002C0006629B207B20A031903146729B20729087D
:1002D000031C6F29B107B10A031903147029B10770
:1002E0002808031C7829B007B00A031903147929D8
:1002F000B007840A20302702031D292940308400DA
:100300008008031D9329840A8008031D9329840A09
:100310008008031D9029840A8008031D9029840AFF
:100320005118C4179429C11700088420840A0008B2
:100330008B20840A00089220840A00089920840AED
:100340000008A02800308316850083128501003044
:100350008316860083128601CE01CF011330C800B8
:100360001430842014308B201430922014309920C3
:100370001430A020273069206130AD00A830AE00D5
:10038000D520D201D401383084000030CB20553044
:1003900084002030C120A720831600308500003063
:1003A0008600831264002030831681008312063099
:1003B000AD008230AE0025306920D5203030AD0050
:1003C000D430AE00D10AD20A3208C039031D1E2A29
:1003D000B21A1A2A321A162AB219122A32190F2AF6
:1003E000B2180F2A32180F2A3308363C031C0F2A82
:1003F0003308053C031C072AFD296E20D20AD20AC5
:10040000D20AC330AD005030AE000030222A6E2038
:10041000D20A6130AD00A830AE000130222A6E2031
:100420000230222A203069200330222A213069201C
:100430000430222A223069200530222A2330692004
:100440000630222AD000D520551C532A5418A72044
:1004500033085302AF00AF1F2F2AAF09AF0A2F088E
:100460000A3C0318382A5410D2013308D300532A07
:100470005418442A52083C3C03184D2A0D30D2002F
:1004800054143308D3004F2A52080E3C03184F2A45
:10049000D2013308D300D201532A541C532A7820A6
:1004A00078207820992AD00803195D2A0310B30D0B
:1004B000B20DB10DB00DD00B562A30083104320404
:1004C000330403199C2AB01BA72A3008B400310852
:1004D000B5003208B6003308B7003B08B3073A0846
:1004E000031C772AB207B20A03190314782AB20749
:1004F0003908031C802AB107B10A03190314812AA1
:10050000B1073808031C892AB007B00A031903147D
:100510008A2AB007B01F982AB009B109B209B309F5
:10052000B30F982AB20F982AB10F982AB00F982AC1
:100530002621851E3B2BCC291330842013308B20A1
:1005400013309220003099201330A020992A1330C4
:10055000842013308B20133092200E3099201330DA
:10056000A020CC291330AD008830AE00D52818303B
:10057000842019308B20123092201A3099201330A9
:10058000A020B22A551CCE2A153084201B308B2087
:100590000A309220223099200E30C02A2130842047
:1005A00017308B20153092201B3099202230C02A22
:1005B0000A3084200D308B200D3092201330BE2A5B
:1005C0001B30842019308B200B3092201330BE2A30
:1005D0001C3084200E308B20163092201730BE2A1B
:1005E0001A3084200A308B200B3092202030992042
:1005F0000E30A020B22A0430052B0830052B0C3019
:10060000052B1030052B1430052BAF00343084003F
:100610002F08CB20343084001A21B22AC12901309E
:10062000D506553084002030AE20B22A3430840004
:100630000030AE20840A0130AE20840A0230AE20A1
:10064000840A0330AE20C129B409B509B609B70937
:10065000B70F302BB60F302BB50F302BB40F302B1C
:10066000162BB401B501B601B701162B0630BC003C
:10067000492B0230372BBC011530842016308B20DB
:1006800017309220103099201330A020B222851EFE
:10069000462BD10A4D20851A492B0A30BD00851AF8
:1006A0005A2BB222BD0B4F2BA720B2224D20851E04
:1006B000542B5B283C08053C0319622B031C642B5C
:1006C000BC0A492BBC01492B3C080A3C03196C2B82
:1006D000031C6F2BBC0A492B0630BC00492BBC0104
:0206E000492BA4
:084000000100020003000400AE
:02400E00063F6B
:10420000000000000000000000000600F10058005F
:1042100000003D0005001800000040000000000004
:1042200000004300A600D3000000A3004400E0000B
:0242400000007C
:00000001FF
