:020000040000FA
:1000000086298207DD348434E934E534B434753428
:100010003D34C434FD34F434FC343D342934AD343F
:10002000793478345D34BC3408340034FF34F83427
:1000300028342D34F4340D3439347534E93418341B
:10004000853439341934DC341D3421348207F734D3
:10005000FB34FE34FD34FF34820700349834963488
:10006000803400340F344234403400340134863458
:10007000A034003400342734103400340034033406
:10008000E834003400340034643400340034003484
:100090000A340034003400340134640083168100D3
:1000A00083120034640081018316273081006400CC
:1000B0002F30810083120034003086008B016400F1
:1000C000810183162B308100831263000000080039
:1000D000C9007F390120C91B0238C9000034CA0099
:1000E0007F390120CA1B0238CA000034CB007F3997
:1000F0000120CB1B0238CB000034CC007F3901201B
:10010000CC1B0238CC000034CD007F390120CD1B40
:100110000238CD0000340030C900CA00CB00CC004A
:10012000CD0000348B1383169B00831200088316C6
:100130009A001C158B1355309D00AA309D009C140D
:100140009C18A0281C1183120034AF008B13831657
:100150009B001C141A08831280002F080800A52099
:10016000013E840AA520013E840AA520013E840A9E
:10017000A528B001B101B201B301AC0181010000B9
:1001800000004E082620AF0049304E0784000008CA
:1001900086002F088500CF0A4F1BCE0A4F134E084A
:1001A000043C031CCE010108B3000130AC1F030165
:1001B000B31B0301B2070318B10AB11BFD283308B2
:1001C000AC00AE080319AD03AE0364000C30FF3E73
:1001D000031DE728000000000000000000002D08BB
:1001E0002E04031DC1280108B3000130AC1F030118
:1001F000B31B0301B2070318B10A00340008840AD4
:10020000B0000008840AB1000008840AB2000008A7
:10021000840AB300A70140308400640027082C2022
:10022000A800A70A27082C20A900A70A27082C2025
:10023000AA00A70A27082C20AB00A70A80012B08D8
:10024000B3022A0803182929B20203190310B203C2
:100250002A29B202290803183229B102031903100E
:10026000B1033329B102280803183B29B00203194E
:100270000310B0033C29B002031C4029800A1F2947
:100280002B08B3072A08031C4A29B207B20A03192C
:1002900003144B29B2072908031C5329B107B10ADB
:1002A000031903145429B1072808031C5C29B0075B
:1002B000B00A031903145D29B007840A203027020D
:1002C000031D0D29403084008008031D7729840A0E
:1002D0008008031D7729840A8008031D7429840A75
:1002E0008008031D7429840A5118C4177829C1177E
:1002F00000086820840A00086F20840A000876201D
:10030000840A00087D20840A0008842800308316AF
:1003100085008312850100308316860083128601D2
:10032000CE01CF011330C8001430682014306F2084
:100330001430762014307D201430842027304D2056
:100340006130AD00A830AE00B920D201D401383000
:1003500084000030AF20553084002030A5208B2051
:100360008316003085000030860083126400203040
:100370008316810083120630AD008230AE00253036
:100380004D20B9203030AD00D430AE00D10AD20AB1
:100390003208C039031D022AB21AFE29321AFA297C
:1003A000B219F6293219F329B218F3293218F329B0
:1003B0003308363C031CF3293308053C031CEB29A6
:1003C000E1295220D20AD20AD20AC330AD005030FD
:1003D000AE000030062A5220D20A6130AD00A830AB
:1003E000AE000130062A52200230062A20304D206D
:1003F0000330062A21304D200430062A22304D20B9
:100400000530062A23304D200630062AD000B920B8
:10041000551C372A54188B2033085302AF00AF1FE6
:10042000132AAF09AF0A2F080A3C03181C2A5410DC
:10043000D2013308D300372A5418282A52083C3CEA
:100440000318312A0D30D20054143308D300332A54
:1004500052080E3C0318332AD2013308D300D201CC
:10046000372A541C372A5C205C205C20B029D00835
:100470000319412A0310B30DB20DB10DB00DD00B0D
:100480003A2A300831043204330403197E2AB01B9F
:10049000892A3008B4003108B5003208B6003308A4
:1004A000B7003B08B3073A08031C5B2AB207B20A3D
:1004B000031903145C2AB2073908031C642AB10724
:1004C000B10A03190314652AB1073808031C6D2A01
:1004D000B007B00A031903146E2AB007B01F7C2AB4
:1004E000B009B109B209B309B30F7C2AB20F7C2A53
:1004F000B10F7C2AB00F7C2A0A21B0291330682062
:1005000013306F201330762013307D20003084208C
:10051000B0291330682013306F2013307620133049
:080520007D200E308420B0297B
:084000000100020003000400AE
:02400E00263F4B
:10420000000000000000000000000600F10058005F
:1042100000003D0005001800000040000000000004
:1042200000004300A600D3000000A3004400E0000B
:0242400000007C
:00000001FF
