:020000040000FA
:10000000AB298207DD348434E934E534B434753403
:100010007D34C434FD34F534FC343D342934AD34FE
:10002000793478345D34BC3408340034FF34F83427
:1000300028342D34F4340D3439347534E93418341B
:10004000853439341934DC341D3421348207FF34CB
:10005000F734FB34FE34FD34FF3482070034983427
:100060009634803400340F34423440340034013448
:100070008634A03400340034273410340034003483
:100080000334E83400340034003464340034003481
:1000900000340A3400340034003401343C08820750
:1000A000D02ADD2AF72A012B0B2B152B222B242BF0
:1000B000262B282B2A2BD02A3C088207352B362BBF
:1000C0003D2B4B2B582B5D2B602B602B602B602B1B
:1000D000602B352B6400831681008312003464008A
:1000E000810183162730810064002F308100831244
:1000F0000034003086008B016400810183162B30B0
:1001000081008312630000000800C9007F390120CC
:100110000238C900FD30C9050034CA007F3901200A
:100120000238CA000034CB007F3901200238CB00EE
:100130000034CC007F3901200238CC000034CD00DF
:100140007F3901200238CD000034CE007F390120F4
:100150000238CE0000340030C900CA00CB00CC0009
:10016000CD00CE0000348B1383169B008312000851
:1001700083169A001C158B1355309D00AA309D00E4
:100180009C149C18C1281C1183120034AF008B13DF
:1001900083169B001C141A08831280002F08080085
:1001A000C620013E840AC620013E840AC620013EC4
:1001B000840AC628B001B101B201B301AC018101CA
:1001C000000000004F082620AF0049304F07840090
:1001D000000886002F088500D00A501BCF0A501354
:1001E0004F08053C031CCF010108B3000130AC1FD0
:1001F0000301B31B0301B2070318B10AB11B1E2987
:100200003308AC00AE080319AD03AE0364000C3034
:10021000FF3E031D08290000000000000000000050
:100220002D082E04031DE2280108B3000130AC1F85
:100230000301B31B0301B2070318B10A003400081D
:10024000840AB0000008840AB1000008840AB200E1
:100250000008840AB300A701403084006400270826
:100260002D20A800A70A27082D20A900A70A2708E3
:100270002D20AA00A70A27082D20AB00A70A80017D
:100280002B08B3022A0803184A29B20203190310E3
:10029000B2034B29B202290803185329B1020319EA
:1002A0000310B1035429B102280803185C29B002D5
:1002B00003190310B0035D29B002031C6129800AF1
:1002C00040292B08B3072A08031C6B29B207B20A7E
:1002D000031903146C29B2072908031C7429B107F8
:1002E000B10A031903147529B1072808031C7D29D5
:1002F000B007B00A031903147E29B007840A20301E
:100300002702031D2E294030840080089929031DEF
:100310009929840A8008031D9929840A8008031DED
:100320009629840A8008031D9629840A5618C41742
:100330009A29C11700088520840A00088D20840AA4
:1003400000089320840A00089920840A00089F204E
:10035000840A0008A52800308316850083128501D1
:1003600000308316860083128601CF01D00113303E
:10037000C80014308D20143093201430992014308C
:100380009F201430A5200030C9000F308D20083088
:1003900093200F3099201D309F201D30A52027303D
:1003A0006A20C330AD005030AE00DA20D201D40153
:1003B000383084000030D020553084002030C620F2
:1003C000AB20831600308500003086008312640065
:1003D00020308316810083120630AD008230AE00DB
:1003E00025306A20DA203030AD00D430AE00D60A95
:1003F000D20A3208C039031D332AB21A2F2A321A00
:100400002B2AB219272A3219242AB218242A321880
:10041000242A3308363C031C242A3308053C031CD9
:100420001C2A122A6F20D20AD20AD20AC330AD0087
:100430005030AE000030372A6F20D20A6130AD0054
:10044000A830AE000130372A6F200230372A203022
:100450006A200330372A21306A200430372A2230BC
:100460006A200530372A23306A200630372AD10027
:10047000DA20551C682A5418AB2033085302AF0009
:10048000AF1F442AAF09AF0A2F080A3C03184D2AB0
:100490005410D2013308D300682A5418592A52083C
:1004A0003C3C0318622A0D30D20054143308D300A8
:1004B000642A52080E3C0318642AD2013308D30080
:1004C000D201682A541C682A792079207920AE2A22
:1004D000D1080319722A0310B30DB20DB10DB00D7E
:1004E000D10B6B2A30083104320433040319B12ACA
:1004F000B01BBE2A3008B4003108B5003208B6007F
:100500003308B7003B08B3073A08031C8C2AB2072C
:10051000B20A031903148D2AB2073908031C952A5D
:10052000B107B10A03190314962AB1073808031C4E
:100530009E2AB007B00A031903149F2AB007B01F00
:10054000AD2AB009B109B209B309B30FAD2AB20F90
:10055000AD2AB10FAD2AB00FAD2A2B21851E622B1B
:10056000E1291330852013308D2013309320133070
:10057000992000309F201330A520AE2A133085200B
:1005800013308D2013309320133099200E309F208C
:100590001330A520E1291330AD008830AE00DA28F1
:1005A0001330852018308D20193093201230992077
:1005B0001A309F201330A520CB2A551CEB2A13306C
:1005C000852015308D201B3093200A309920223051
:1005D0009F200E30DB2A1330852021308D201730EC
:1005E0009320153099201B309F202230DB2A1330B6
:1005F00085200A308D200D3093200D309920133046
:10060000D92A133085201B308D20193093200B30D0
:1006100099201330D92A133085201C308D200E30BC
:100620009320163099201730D92A133085201A309C
:100630008D200A3093200B30992020309F200E30DF
:10064000A520CB2A04302C2B08302C2B0C302C2B43
:1006500010302C2B14302C2BAF00343084002F089A
:10066000D020343084001F21CB2AD6290130D50672
:10067000553084002030B320CB2A34308400003041
:10068000B320840A0130B320840A0230B320840AE4
:100690000330B320D629B409B509B609B709B70F95
:1006A000572BB60F572BB50F572BB40F572B3D2B8E
:1006B000B401B501B601B7013D2B0630BC00722B69
:1006C00002305E2BBC011330852015308D20163092
:1006D00093201730992010309F201330A520CB2273
:1006E000851E6F2BD60A4E20851A722B0A30BD004C
:1006F000851A832BCB22BD0B782BAB20CB224E202F
:10070000851E7D2B5C283C08053C03198B2B031CA4
:100710008D2BBC0A722BBC01722B3C080A3C0319BE
:10072000952B031C982BBC0A722B0630BC00722B35
:04073000BC01722B6B
:084000000100020003000400AE
:02400E00063F6B
:10420000000000000000000000000600F10058005F
:1042100000003D0005001800000040000000000004
:1042200000004300A600D3000000A3004400E0000B
:0242400000007C
:00000001FF
