:020000040000FA
:10000000B8298207DD348434E934E534B4347534F6
:100010007D34C434FD34F534FC343D342934AD34FE
:10002000793478345D34BC3408340034FF34F83427
:1000300028342D34F4340D3439347534E93418341B
:10004000853439341934DC341D3421348207F734D3
:10005000FB34FE34FD34FF3482070534F534E134DB
:100060000034003498349634803400340F344234F1
:100070004034003401348634A03400340034273452
:100080001034003400340334E834003400340034D5
:1000900064340034003400340A3400340034003452
:1000A00001343C088207DC2AE72AFD2A052B0D2BA8
:1000B000152B332B202B222B242B262B282BDC2A11
:1000C0003E2B402B422B442B462BDC2A3C0882073C
:1000D000482B492B502B5E2B6B2B702B752B732BC6
:1000E000732B732B732B732B482B782B782B782B3C
:1000F000782B782B482B6400831681008312003400
:100100006400810183162730810064002F30810054
:1001100083120034003086008B0164008101831655
:100120002B3081008312630000000800CA007F3971
:100130000120CA1B0238CA000034CB007F390120DD
:10014000CB1B0238CB000034CC007F390120CC1B04
:100150000238CC000034CD007F390120CD1B02389D
:10016000CD000034CE007F390120CE1B0238CE00F6
:1001700000340030CA00CB00CC00CD00CE000034EB
:100180008B1383169B008312000883169A001C159C
:100190008B1355309D00AA309D009C149C18CE28CE
:1001A0001C1183120034AF008B1383169B001C14A8
:1001B0001A08831280002F080800D320013E840A09
:1001C000D320013E840AD320013E840AD328B00103
:1001D000B101B201B301AC018101000000004F0880
:1001E0002620AF004A304F078400000886002F0801
:1001F0008500D00A501BCF0A50134F08043C031C43
:10020000CF010108B3000130AC1F0301B31B030190
:10021000B2070318B10AB11B2B293308AC00AE0892
:100220000319AD03AE0364000C30FF3E031D152916
:10023000000000000000000000002D082E04031D37
:10024000EF280108B3000130AC1F0301B31B030109
:10025000B2070318B10A00340008840AB00000088D
:10026000840AB1000008840AB2000008840AB300BE
:10027000A70140308400640027082C20A800A70AAA
:1002800027082C20A900A70A27082C20AA00A70AC3
:1002900027082C20AB00A70A80012B08B3022A08EC
:1002A00003185729B20203190310B2035829B202E6
:1002B000290803186029B10203190310B103612949
:1002C000B102280803186929B00203190310B0030A
:1002D0006A29B002031C6E29800A4D292B08B30736
:1002E0002A08031C7829B207B20A031903147929D2
:1002F000B2072908031C8129B107B10A03190314A5
:100300008229B1072808031C8A29B007B00A0319FB
:1003100003148B29B007840A24302702031D3B29CC
:10032000403084008008031DA929840A8008031D29
:10033000A929840A8008031DA929840A8008031DAD
:10034000A629840A8008031DA629840A5218C51705
:10035000AA29C21700089620840A00089D20840A52
:100360000008A420840A0008AB20840A0008B228F0
:1003700000308316850083128501003083168600C5
:1003800083128601CF01D0011330C80014309620AB
:1003900014309D201430A4201430AB201430B2202F
:1003A00027307B206130AD00A830AE00E720D301BC
:1003B000D501383084000030DD20563084002030F4
:1003C000D320573084004030D320AF010310D70C26
:1003D000D7080319ED29AF0AE6292F08D700B9205D
:1003E00083160030850000308600831264002030C0
:1003F0008316810083120630AD008230AE002530B6
:100400007B20E7203030AD00D430AE00D20AD30AD2
:100410003208C039031D422AB21A3E2A321A3A2A39
:10042000B219362A3219332AB218332A3218332A2B
:100430003308363C031C332A3308053C031C2B2AA3
:10044000212A8020D30AD30AD30AC330AD0050300A
:10045000AE000030462A8020D30A6130AD00A830BB
:10046000AE000130462A80200230462A20307B2010
:100470000330462A21307B200430462A22307B205C
:100480000530462A23307B200630462A5707D10004
:10049000E720561C782A5518B92033085402AF00BB
:1004A000AF1F542AAF09AF0A2F080A3C03185D2A70
:1004B0005510D3013308D400782A5518692A5308F7
:1004C0003C3C0318722A0D30D30055143308D40075
:1004D000742A53080E3C0318742AD3013308D4003D
:1004E000D301782A551C782A8A208A208A20BE2A9D
:1004F000D1080319822A0310B30DB20DB10DB00D4E
:10050000D10B7B2A30083104320433040319C12A89
:10051000B01BCC2A3008B4003108B5003208B60050
:100520003308B7003B08B3073A08031C9C2AB207FC
:10053000B20A031903149D2AB2073908031CA52A1D
:10054000B107B10A03190314A62AB1073808031C1E
:10055000AE2AB007B00A03190314AF2AB007B01FC0
:10056000BD2AB009B109B209B309B30FBD2AB20F50
:10057000BD2AB10FBD2AB00FBD2A3821851E7D2BA3
:10058000F0291330962013309D201330A420003022
:10059000AB201330B220BE2A1330962013309D209A
:1005A0001330A4200E30AB201330B220F0291330CA
:1005B000AD008830AE00E7281830962019309D2015
:1005C0001230A4201A30AB201330B220D72A561C88
:1005D000F32A153096201B309D200A30A4202230AB
:1005E000AB200E30E52A2130962017309D201530A3
:1005F000A4201B30AB202230E52A0A3096200D3093
:100600009D200D30A4201330E32A1B309620193092
:100610009D200B30A4201330E32A1C3096200E308E
:100620009D201630A4201730E32A1A3096200A3075
:100630009D200B30A4202030AB200E30B220D72AD2
:1006400004302A2B08302A2B0C302A2B10302A2B6E
:1006500014302A2BAF00343084002F08DD203430D2
:1006600084002C21D72A1530962016309D200E307C
:10067000A4201B30AB200C30B220D72A24302A2BE8
:1006800028302A2B2C302A2B30302A2B34302A2B9E
:10069000D7290130D606563084002030C020D72A12
:1006A000343084000030C020840A0130C020840A25
:1006B0000230C020840A0330C020D729B409B5090C
:1006C000B609B709B70F6A2BB60F6A2BB50F6A2B9D
:1006D000B40F6A2B502BB401B501B601B701502BF2
:1006E0000730BC008B2B0230712B0D30BC008B2BE4
:1006F000373084004030C020D729BC011530962007
:1007000016309D201730A4201030AB201330B220BB
:10071000D722851E882BD20A5120851A8B2B0A30AE
:10072000BD00851A9C2BD722BD0B912BB920D72257
:100730005120851E962B66283C08063C0319A42BE5
:10074000031CA62BBC0A8B2BBC018B2B3C080C3C3E
:100750000319AE2B031CB12BBC0A8B2B0730BC003A
:100760008B2B3C08123C0319B92B031CBC2BBC0A75
:0C0770008B2B0D30BC008B2BBC018B2BA5
:084000000100020003000400AE
:02400E00063F6B
:10420000000000000000000000000600F10058005F
:1042100000003D0005001800000040000000000004
:1042200000004300A600D3000000A3004400E0000B
:0242400000007C
:0842480000000000000001006D
:104250000000000000000200000000000000080054
:10426000000000000000400000000000000080008E
:00000001FF
