:020000040000FA
:100000008C019D018F019001910192019301940156
:100010009501980199019A015E30A3007230A40005
:100020000530A5000230A6000530A7005E309E0016
:1000300072309F000530A0000230A1000530A20000
:10004000A030A800B230A9000430AA000130AB00F3
:100050000330AC0083161030850000308600640049
:10006000273081008312A9289B010C089C008A205C
:100070000314980203184728031401309902031847
:100080004728031401309A02031847281B149C03C5
:100090001C088A2003149902031854280314013001
:1000A0009A02031854281B149C031C088A2003146A
:1000B0009A0203185D2803145E281B0C00349B0170
:1000C0000C089C008A2003109807031C7228031058
:1000D00001309907031C7228031001309A07031C92
:1000E00072281B149C031C088A2003109907031C08
:1000F0007F28031001309A07031C7F281B149C03E0
:100100001C088A2003149A07031C882803148928D2
:100110001B0C00348207003400340A3400340034ED
:10012000643400340334E8340034273410340134A8
:100130008634A0340F344234403482073F340634CE
:100140005B344F3466346D347D3407347F34673428
:100150008034831600308600831211308C00093001
:100160008D008E0106309D0034200318BE288E0AB3
:100170008D03031DB42803308C02C1285F20033097
:100180008C0209308D0010301D079B009B031B085B
:1001900084000E088E0180009D0301300C07031DB2
:1001A000B42818088F0097018101000000009D010C
:1001B0001E088C008B0110308500831618308500D6
:1001C00083120F301D07840000089D209B00220829
:1001D0001D02031DEC289B171B0886001D0800004C
:1001E00085000B1DF628970A0B11F9280000000066
:1001F00000001F089B009B0BFB2800009D0A073096
:100200001D02031DE128000020089B009B0B06290E
:1002100000009D018C0BE128000021089B000B1DB4
:100220001429970A0B1117290000000000009B0BEE
:100230000F290000000000000000030186001030BC
:10024000850083161030850083120B19970A0B1155
:100250000108990017089A009B019B0A85158511D2
:100260000B1101080311190203192D299B0A9B097F
:100270009B0A1B0A98001730850083160130860000
:10028000831206184E2924089F002508A00026087E
:10029000A10023089E002708A200A92829089F0082
:1002A0002A08A0002B08A10028089E002C08A20004
:0202B000A9287B
:00000001FF
