:10000000312E8207DD348434E934E534B434753478
:100010007D34C434FD34F534FC343D342934AD34FE
:10002000793478345D34BC3408340034FF34F83427
:1000300028342D34F4340D3439347534E93418341B
:10004000853439341934DC341D3421348207F734D3
:10005000FB34FE34FD34FF34820700349834963488
:10006000803400340F344234403400340134863458
:10007000A034003400342734103400340034033406
:10008000E834003400340034643400340034003484
:100090000A3400340034003401343C088207462F0F
:1000A000512F672F6F2F772F7F2F8A2F8C2F8E2F17
:1000B000902F922F462F3C0882079D2F9E2FA52F11
:1000C000B32FC02FC52FC82FC82FC82FC82F9D2FC3
:1000D000640083168100831200346400810183165A
:1000E0002730810064002F308100831200340030FB
:1000F00086008B016400810183162B3081008316FA
:10010000630000000800C9007F390120C91B0238C4
:10011000C9000034CA007F390120CA1B0238CA0056
:100120000034CB007F390120CB1B0238CB000034D8
:10013000CC007F390120CC1B0238CC000034CD002C
:100140007F390120CD1B0238CD0000340030C900BA
:10015000CA00CB00CC00CD0000348B1383169B006B
:100160008312000883169A001C158B1355309D00CE
:10017000AA309D009C149C18BB281C1183120034CB
:10018000AF008B1383169B001C141A088312800087
:100190002F080800C020013E840AC020013E840AC6
:1001A000C020013E840AC028B001B101B201B301F0
:1001B000AC018101000000004E082620AF0049304C
:1001C0004E078400000886002F088500CF0A4F1BC9
:1001D000CE0A4F134E08043C031CCE010108B300A5
:1001E0000130AC1F0301B31B0301B2070318B10AAE
:1001F000B11B18293308AC00AE080319AD03AE03D8
:1002000064000C30FF3E031D0229000000000000C6
:10021000000000002D082E04031DDC280108B30097
:100220000130AC1F0301B31B0301B2070318B10A6D
:1002300000340008840AB0000008840AB1000008F5
:10024000840AB2000008840AB300A7014030840089
:10025000640027082C20A800A70A27082C20A90042
:10026000A70A27082C20AA00A70A27082C20AB00E1
:10027000A70A80012B08B3022A0803184429B202F6
:1002800003190310B2034529B202290803184D29A6
:10029000B10203190310B1034E29B1022808031853
:1002A0005629B00203190310B0035729B002031CEA
:1002B0005B29800A3A292B08B3072A08031C652901
:1002C000B207B20A031903146629B2072908031CEE
:1002D0006E29B107B10A031903146F29B107280861
:1002E000031C7729B007B00A031903147829B00753
:1002F000840A20302702031D28294030840080080A
:10030000031D9229840A8008031D9229840A80080B
:10031000031D8F29840A8008031D8F29840A511820
:10032000C4179329C11700088320840A00088A2073
:10033000840A00089120840A00089820840A000892
:020340009F28F4
:100C620000308316850083128501003083168600CA
:100C720083128601CE01CF011330C80014308320C5
:100C820014308A20143091201430982014309F2080
:100C9200273068206130AD00A830AE00D420D201E8
:100CA200D401383084000030CA205530840020300E
:100CB200C020A620831600308500003086008312F3
:100CC200640020308316810083120630AD0082302A
:100CD200AE0025306820D4203030AD00D430AE00D4
:100CE200D10AD20A3208C039031DAD2EB21AA92E7A
:100CF200321AA52EB219A12E32199E2EB2189E2E8C
:100D020032189E2E3308363C031C9E2E3308053CB7
:100D1200031C962E8C2E6D20D20AD20AD20AC33020
:100D2200AD005030AE000030B12E6D20D20A6130DD
:100D3200AD00A830AE000130B12E6D200230B12ED0
:100D4200203068200330B12E213068200430B12ECB
:100D5200223068200530B12E233068200630B12EB3
:100D6200D000D420551CE22E5418A620330853027A
:100D7200AF00AF1FBE2EAF09AF0A2F080A3C0318FF
:100D8200C72E5410D2013308D300E22E5418D32EAA
:100D920052083C3C0318DC2E0D30D20054143308A8
:100DA200D300DE2E52080E3C0318DE2ED201330889
:100DB200D300D201E22E541CE22E77207720772036
:100DC200282FD0080319EC2E0310B30DB20DB10D6C
:100DD200B00DD00BE52E3008310432043304031970
:100DE2002B2FB01B362F3008B4003108B500320863
:100DF200B6003308B7003B08B3073A08031C062FB6
:100E0200B207B20A03190314072FB2073908031CE9
:100E12000F2FB107B10A03190314102FB1073808B5
:100E2200031C182FB007B00A03190314192FB007B7
:100E3200B01F272FB009B109B209B309B30F272F89
:100E4200B20F272FB10F272FB00F272F2521851E75
:100E5200CA2F5B2E1330832013308A201330912047
:100E62000030982013309F20282F13308320133016
:100E72008A20133091200E30982013309F205B2E51
:100E82001330AD008830AE00D428183083201930DA
:100E92008A20123091201A30982013309F20412F3F
:100EA200551C5D2F153083201B308A200A3091207B
:100EB200223098200E304F2F2130832017308A2085
:100EC200153091201B30982022304F2F0A3083207A
:100ED2000D308A200D30912013304D2F1B3083208E
:100EE20019308A200B30912013304D2F1C30832073
:100EF2000E308A201630912017304D2F1A30832061
:100F02000A308A200B309120203098200E309F200A
:100F1200412F0430942F0830942F0C30942F10302E
:100F2200942F1430942FAF00343084002F08CA203D
:100F3200343084001921412F502E0130D50655300E
:100F420084002030AD20412F343084000030AD20A9
:100F5200840A0130AD20840A0230AD20840A0330B5
:100F6200AD20502EB409B509B609B709B70FBF2F86
:100F7200B60FBF2FB50FBF2FB40FBF2FA52FB401D0
:100F8200B501B601B701A52F0630BC00D82F02303B
:100F9200C62FBC011530832016308A2017309120CD
:100FA2001030982013309F204127851ED52FD10A5B
:100FB2004D20851AD82F0A30BD00851AE92F412706
:100FC200BD0BDE2FA62041274D20851EE32F5B2877
:100FD2003C08053C0319F12F031CF32FBC0AD82F40
:100FE200BC01D82F3C080A3C0319FB2F031CFE2F1F
:0E0FF200BC0AD82F0630BC00D82FBC01D82F67
:084000004200010025007F00D1
:02400E00063F6B
:10420000000000000000000000000600F10058005F
:1042100000003D00050018000000A3004400E0007D
:104220000000A300310058000000BC0061004E00F7
:0242300000008C
:00000001FF
